:100000000C9434000C943E000C943E000C943E0082
:100010000C943E000C943E000C943E000C943E0068
:100020000C943E000C943E000C943E000C943E0058
:100030000C943E000C943E000C943E000C943E0048
:100040000C943E000C943E000C943E000C943E0038
:100050000C943E000C943E000C943E000C943E0028
:100060000C943E000C943E0011241FBECFEFD8E04C
:10007000DEBFCDBF0E9440000C9449010C940000EB
:100080000E945200219A0E94BD00199A0E946F009E
:100090002FEF85EA9EE0215080409040E1F700C0BC
:1000A0000000F1CF87E690E09093C5008093C400F4
:1000B00088E18093C10086E08093C2000895E0EC5F
:1000C000F0E0908195FFFDCF8093C6000895E0ECAD
:1000D000F0E080818823ECF78091C6000895CF92EC
:1000E000DF92EF92FF920F931F93CF93DF938C01D8
:1000F000009721F480E30E945F0036C099233CF50D
:100100008DE20E945F0011950195110920C0C80180
:10011000BE010E9421016115710519F40115110537
:1001200021F480E3860F0E945F00C801BE010E9497
:1001300021018C01CE01B6010E942101EB0181E079
:10014000E81AF10821F780E00E945F000DC00F2E31
:10015000F5E0EF2EF12CF02DC0E1D7E20F2EFAE002
:10016000CF2ED12CF02DD3CFDF91CF911F910F91B6
:10017000FF90EF90DF90CF900895CF92DF92EF92B3
:10018000FF920F931F93CF93DF93C1E0D0E000E382
:1001900010E30F2EF0E3FF2EF02D0F2EF0E3EF2EE5
:1001A000F02DCC24CA94DD24DA9407C0CC2DDD2DAB
:1001B00080E3EF2CF12E102F082F0E9467008D3264
:1001C000A9F38111F6CF4E2D50E04053510988EE2E
:1001D00093E0489F9001499F300D589F300D1124A6
:1001E0004F2D50E04053510964E6649FC001659F64
:1001F000900D1124820F931F212F30E020533109DD
:10020000A901440F551F220F331F220F331F220F46
:10021000331F240F351F820F931F800F911DC0972E
:100220009C012C9FC0012D9F900D3C9F900D11248F
:10023000DF91CF911F910F91FF90EF90DF90CF90C2
:10024000089597FB072E16F4009407D077FD09D088
:100250000E94350107FC05D03EF4909581959F4F93
:100260000895709561957F4F0895AA1BBB1B51E1BE
:1002700007C0AA1FBB1FA617B70710F0A61BB70B16
:10028000881F991F5A95A9F780959095BC01CD01BB
:060290000895F894FFCF71
:00000001FF
