:100000000C9434000C9451000C9451000C94510049
:100010000C9451000C9451000C9451000C9451001C
:100020000C9451000C9451000C9451000C9451000C
:100030000C9451000C9451000C9451000C945100FC
:100040000C9451000C9451000C9451000C945100EC
:100050000C9451000C9470000C9451000C945100BD
:100060000C9451000C94510011241FBECFEFD8E026
:10007000DEBFCDBF11E0A0E0B1E0E4EFF2E002C0EE
:1000800005900D92A031B107D9F721E0A0E1B1E0D0
:1000900001C01D92A531B207E1F70E94A7000C94A0
:1000A00078010C940000EAE7F0E0808180688083AA
:1000B000808186608083808188608083ECE7F0E0C7
:1000C00080818064808380818083808180830895A3
:1000D000569A84B5836884BD85B5846085BD0895CE
:1000E0001F920F920FB60F9211248F939F93EF934D
:1000F000FF9380911001882319F0813069F016C0B8
:1001000081E0809310018091780090917900909324
:100110001201809311010AC01092100180917800A1
:10012000909179009093140180931301ECE7F0E033
:10013000808190911001807F892B8083FF91EF91C6
:100140009F918F910F900FBE0F901F9018950E9456
:1001500053000E9468000E94DB007894CAE7D0E058
:10016000888186FD03C08881806488838091130123
:1001700090911401853F9140E0F0809111019091A0
:100180001201969587959695879587BD80E091E0B9
:100190000E944101809111019091120196958795DD
:1001A000969587950E94F0008EE091E00E944101B3
:1001B000D7CF17BCD5CF87E690E09093C50080934A
:1001C000C40088E18093C10086E08093C200089556
:1001D000E0ECF0E0908195FFFDCF8093C60008959C
:1001E000CF92DF92EF92FF920F931F93CF93DF9303
:1001F0008C01009721F480E30E94E80039C0992324
:1002000054F58DE20E94E80011950195110923C073
:10021000C801BE010E9450016115710531F401153C
:10022000110519F00C171D0724F480E3860F0E94B6
:10023000E800C801BE010E9450018C01CE01B60148
:100240000E945001EB0181E0E81AF10809F780E013
:100250000E94E8000DC00F2EF5E0EF2EF12CF02DDE
:10026000C0E1D7E20F2EFAE0CF2ED12CF02DD0CF67
:10027000DF91CF911F910F91FF90EF90DF90CF9082
:100280000895CF93DF93EC018881882331F0219684
:100290000E94E80089918111FBCFDF91CF910895F1
:1002A00097FB072E16F4009407D077FD09D00E9423
:1002B000640107FC05D03EF4909581959F4F089509
:1002C000709561957F4F0895AA1BBB1B51E107C034
:1002D000AA1FBB1FA617B70710F0A61BB70B881FD6
:1002E000991F5A95A9F780959095BC01CD01089565
:0402F000F894FFCFB0
:1002F40054656D70657261747572653A20000A0008
:00000001FF
