S00F000070726F6A6563742E737265631E
S11300000C9434000C9446000C9446000C94460066
S11300100C9446000C9446000C9446000C94460044
S11300200C9446000C9446000C9446000C94460034
S11300300C9446000C9446000C9446000C94460024
S11300400C9446000C9446000C9446000C94460014
S11300500C9446000C945E000C9446000C944600EC
S11300600C9446000C94460011241FBECFEFD8E038
S1130070DEBFCDBF21E0A0E0B1E001C01D92A330FE
S1130080B207E1F70E9492000C94AF000C940000B8
S1130090EAE7F0E0808180688083808186608083E5
S11300A0808188608083ECE7F0E0808180648083D5
S11300B08081806280838081808308951F920F9263
S11300C00FB60F9211248F939F93EF93FF93809118
S11300D078009091790090930201809301018091BE
S11300E07C008F708093000180910001882319F0B7
S11300F0813029F006C081E08093000102C0109293
S11301000001ECE7F0E0808190910001807F892B71
S11301108083FF91EF919F918F910F900FBE0F906D
S11301201F9018950E9448000E94A2007894EAE764
S1130130F0E0808186FD03C08081806480838091AB
S11301400001F7CF87E690E09093C5008093C40048
S113015088E18093C10086E08093C2000895F894FA
S1050160FFCFCB
S9030000FC
