:100000000C9434000C9451000C9451000C94510049
:100010000C9451000C9451000C9451000C9451001C
:100020000C9451000C9451000C9451000C9451000C
:100030000C9451000C9451000C9451000C945100FC
:100040000C9451000C9451000C9451000C945100EC
:100050000C9451000C9470000C9451000C945100BD
:100060000C9451000C94510011241FBECFEFD8E026
:10007000DEBFCDBF11E0A0E0B1E0E6EFF3E002C0EB
:1000800005900D92A035B107D9F721E0A0E5B1E0C8
:1000900001C01D92A535B207E1F70E94A7000C949C
:1000A000F9010C940000EAE7F0E080818068808329
:1000B000808186608083808188608083ECE7F0E0C7
:1000C00080818064808380818083808180830895A3
:1000D000569A84B5836884BD85B5846085BD0895CE
:1000E0001F920F920FB60F9211248F939F93EF934D
:1000F000FF9380915001882319F0813069F016C078
:1001000081E08093500180917800909179009093E4
:100110005201809351010AC01092500180917800E1
:10012000909179009093540180935301ECE7F0E0B3
:100130008081807F90915001892B8083FF91EF9186
:100140009F918F910F900FBE0F901F9018950E9456
:1001500053000E9468000E94EA0078940F2EF4EF8A
:10016000EF2EFF24F394F02DCAE7D0E000EC10E06E
:10017000888186FD03C088818064888380915301D3
:1001800090915401E816F906E0F4809151019091A4
:100190005201969587959695879587BD80E091E069
:1001A0000E94C201809151019091520196958795CC
:1001B000969587950E9407018EE091E00E94C2010A
:1001C00001C017BCF8018081882394F60E945E016B
:1001D0007C01CECF87E690E09093C5008093C40069
:1001E00088E18093C10086E08093C2000895E0EC2E
:1001F000F0E0908195FFFDCF8093C6000895E0EC7C
:10020000F0E080818823ECF78091C6000895AF92DA
:10021000BF92CF92DF92FF920F931F93CF93DF9302
:100220008C01009739F480E30E94F70080E00E947F
:10023000F7003AC0992354F58DE20E94F70011951A
:100240000195110923C0F11007C0C801BE010E9429
:10025000D101F62E662341F0C801BE010E94D101F2
:1002600080E3860F0E94F700C801BE010E94D10101
:100270008C01CE01B5010E94D101EB0181E0C81AC9
:10028000D10809F780E00E94F7000EC00F2EF5E0BC
:10029000CF2ED12CF02DC0E1D7E2F12C0F2EFAE0B9
:1002A000AF2EB12CF02DCFCFDF91CF911F910F91B9
:1002B000FF90DF90CF90BF90AF900895CF92DF92E4
:1002C000EF92FF920F931F93CF93DF93C1E0D0E0A3
:1002D00000E310E30F2EF0E3FF2EF02D0F2EF0E3DE
:1002E000EF2EF02DCC24CA94DD24DA9407C0CC2D57
:1002F000DD2D80E3EF2CF12E102F082F0E94FF0040
:100300008D32A9F38111F6CF4E2D50E040535109A3
:1003100088EE93E0489F9001499F300D589F300D23
:1003200011244F2D50E04053510964E6649FC001F1
:10033000659F900D1124820F931F212F30E02053D1
:100340003109A901440F551F220F331F220F331FFC
:10035000220F331F240F351F820F931F800F911D13
:10036000C0979C012C9FC0012D9F900D3C9F900D2C
:100370001124DF91CF911F910F91FF90EF90DF90AB
:10038000CF900895CF93DF93EC018881882331F0DB
:1003900021960E94F70089918111FBCFDF91CF91C7
:1003A000089597FB072E16F4009407D077FD09D027
:1003B0000E94E50107FC05D03EF4909581959F4F82
:1003C0000895709561957F4F0895AA1BBB1B51E15D
:1003D00007C0AA1FBB1FA617B70710F0A61BB70BB5
:1003E000881F991F5A95A9F780959095BC01CD015A
:0603F0000895F894FFCF10
:1003F60054656D70657261747572653A20000943C3
:10040600686F6F7365206E657720746872657368B0
:100416006F6C642062792077726974696E673A201E
:100426003C6E756D6265723E2077697468204E5524
:100436004C4C207465726D696E6174696F6E0A004A
:00000001FF
